{
  "_format": "hh-sol-artifact-1",
  "contractName": "MyToken",
  "sourceName": "contracts/MyToken.sol",
  "abi": [
    {
      "inputs": [
        {
          "internalType": "string",
          "name": "_name",
          "type": "string"
        },
        {
          "internalType": "string",
          "name": "_symbol",
          "type": "string"
        },
        {
          "internalType": "uint8",
          "name": "_decimal",
          "type": "uint8"
        },
        {
          "internalType": "uint256",
          "name": "_amount",
          "type": "uint256"
        }
      ],
      "stateMutability": "nonpayable",
      "type": "constructor"
    },
    {
      "anonymous": false,
      "inputs": [
        {
          "indexed": true,
          "internalType": "address",
          "name": "spender",
          "type": "address"
        },
        {
          "indexed": false,
          "internalType": "uint256",
          "name": "value",
          "type": "uint256"
        }
      ],
      "name": "Approval",
      "type": "event"
    },
    {
      "anonymous": false,
      "inputs": [
        {
          "indexed": true,
          "internalType": "address",
          "name": "from",
          "type": "address"
        },
        {
          "indexed": true,
          "internalType": "address",
          "name": "to",
          "type": "address"
        },
        {
          "indexed": false,
          "internalType": "uint256",
          "name": "value",
          "type": "uint256"
        }
      ],
      "name": "Transfer",
      "type": "event"
    },
    {
      "inputs": [
        {
          "internalType": "address",
          "name": "owner",
          "type": "address"
        }
      ],
      "name": "_balanceOf",
      "outputs": [
        {
          "internalType": "uint256",
          "name": "",
          "type": "uint256"
        }
      ],
      "stateMutability": "view",
      "type": "function"
    },
    {
      "inputs": [],
      "name": "_name",
      "outputs": [
        {
          "internalType": "string",
          "name": "",
          "type": "string"
        }
      ],
      "stateMutability": "view",
      "type": "function"
    },
    {
      "inputs": [],
      "name": "_totalSupply",
      "outputs": [
        {
          "internalType": "uint256",
          "name": "",
          "type": "uint256"
        }
      ],
      "stateMutability": "view",
      "type": "function"
    },
    {
      "inputs": [
        {
          "internalType": "address",
          "name": "",
          "type": "address"
        },
        {
          "internalType": "address",
          "name": "",
          "type": "address"
        }
      ],
      "name": "allowance",
      "outputs": [
        {
          "internalType": "uint256",
          "name": "",
          "type": "uint256"
        }
      ],
      "stateMutability": "view",
      "type": "function"
    },
    {
      "inputs": [
        {
          "internalType": "address",
          "name": "spender",
          "type": "address"
        },
        {
          "internalType": "uint256",
          "name": "amount",
          "type": "uint256"
        }
      ],
      "name": "approve",
      "outputs": [],
      "stateMutability": "nonpayable",
      "type": "function"
    },
    {
      "inputs": [
        {
          "internalType": "address",
          "name": "",
          "type": "address"
        }
      ],
      "name": "balanceOf",
      "outputs": [
        {
          "internalType": "uint256",
          "name": "",
          "type": "uint256"
        }
      ],
      "stateMutability": "view",
      "type": "function"
    },
    {
      "inputs": [],
      "name": "decimals",
      "outputs": [
        {
          "internalType": "uint8",
          "name": "",
          "type": "uint8"
        }
      ],
      "stateMutability": "view",
      "type": "function"
    },
    {
      "inputs": [],
      "name": "manager",
      "outputs": [
        {
          "internalType": "address",
          "name": "",
          "type": "address"
        }
      ],
      "stateMutability": "view",
      "type": "function"
    },
    {
      "inputs": [
        {
          "internalType": "uint256",
          "name": "amount",
          "type": "uint256"
        },
        {
          "internalType": "address",
          "name": "owner",
          "type": "address"
        }
      ],
      "name": "mint",
      "outputs": [],
      "stateMutability": "nonpayable",
      "type": "function"
    },
    {
      "inputs": [],
      "name": "name",
      "outputs": [
        {
          "internalType": "string",
          "name": "",
          "type": "string"
        }
      ],
      "stateMutability": "view",
      "type": "function"
    },
    {
      "inputs": [],
      "name": "owner",
      "outputs": [
        {
          "internalType": "address",
          "name": "",
          "type": "address"
        }
      ],
      "stateMutability": "view",
      "type": "function"
    },
    {
      "inputs": [
        {
          "internalType": "address",
          "name": "_mgr",
          "type": "address"
        }
      ],
      "name": "setMgr",
      "outputs": [],
      "stateMutability": "nonpayable",
      "type": "function"
    },
    {
      "inputs": [],
      "name": "symbol",
      "outputs": [
        {
          "internalType": "string",
          "name": "",
          "type": "string"
        }
      ],
      "stateMutability": "view",
      "type": "function"
    },
    {
      "inputs": [],
      "name": "totalSupply",
      "outputs": [
        {
          "internalType": "uint256",
          "name": "",
          "type": "uint256"
        }
      ],
      "stateMutability": "view",
      "type": "function"
    },
    {
      "inputs": [
        {
          "internalType": "uint256",
          "name": "amount",
          "type": "uint256"
        },
        {
          "internalType": "address",
          "name": "to",
          "type": "address"
        }
      ],
      "name": "transfer",
      "outputs": [],
      "stateMutability": "nonpayable",
      "type": "function"
    },
    {
      "inputs": [
        {
          "internalType": "address",
          "name": "from",
          "type": "address"
        },
        {
          "internalType": "address",
          "name": "to",
          "type": "address"
        },
        {
          "internalType": "uint256",
          "name": "amount",
          "type": "uint256"
        }
      ],
      "name": "transferFrom",
      "outputs": [],
      "stateMutability": "nonpayable",
      "type": "function"
    }
  ],
  "bytecode": "0x608060405234801561001057600080fd5b50604051611a72380380611a728339818101604052810190610032919061038b565b333381600160006101000a81548173ffffffffffffffffffffffffffffffffffffffff021916908373ffffffffffffffffffffffffffffffffffffffff160217905550806000806101000a81548173ffffffffffffffffffffffffffffffffffffffff021916908373ffffffffffffffffffffffffffffffffffffffff160217905550505083600290816100c69190610641565b5082600390816100d69190610641565b5081600460006101000a81548160ff021916908360ff16021790555061012b600460009054906101000a900460ff1660ff16600a836101159190610742565b61011f9190610742565b3361013460201b60201c565b505050506107b8565b81600560008282546101469190610784565b9250508190555081600660008373ffffffffffffffffffffffffffffffffffffffff1673ffffffffffffffffffffffffffffffffffffffff168152602001908152602001600020600082825461019c9190610784565b925050819055505050565b6000604051905090565b600080fd5b600080fd5b600080fd5b600080fd5b6000601f19601f8301169050919050565b7f4e487b7100000000000000000000000000000000000000000000000000000000600052604160045260246000fd5b61020e826101c5565b810181811067ffffffffffffffff8211171561022d5761022c6101d6565b5b80604052505050565b60006102406101a7565b905061024c8282610205565b919050565b600067ffffffffffffffff82111561026c5761026b6101d6565b5b610275826101c5565b9050602081019050919050565b60005b838110156102a0578082015181840152602081019050610285565b60008484015250505050565b60006102bf6102ba84610251565b610236565b9050828152602081018484840111156102db576102da6101c0565b5b6102e6848285610282565b509392505050565b600082601f830112610303576103026101bb565b5b81516103138482602086016102ac565b91505092915050565b600060ff82169050919050565b6103328161031c565b811461033d57600080fd5b50565b60008151905061034f81610329565b92915050565b6000819050919050565b61036881610355565b811461037357600080fd5b50565b6000815190506103858161035f565b92915050565b600080600080608085870312156103a5576103a46101b1565b5b600085015167ffffffffffffffff8111156103c3576103c26101b6565b5b6103cf878288016102ee565b945050602085015167ffffffffffffffff8111156103f0576103ef6101b6565b5b6103fc878288016102ee565b935050604061040d87828801610340565b925050606061041e87828801610376565b91505092959194509250565b600081519050919050565b7f4e487b7100000000000000000000000000000000000000000000000000000000600052602260045260246000fd5b6000600282049050600182168061047c57607f821691505b60208210810361048f5761048e610435565b5b50919050565b60008190508160005260206000209050919050565b60006020601f8301049050919050565b600082821b905092915050565b6000600883026104f77fffffffffffffffffffffffffffffffffffffffffffffffffffffffffffffffff826104ba565b61050186836104ba565b95508019841693508086168417925050509392505050565b6000819050919050565b600061053e61053961053484610355565b610519565b610355565b9050919050565b6000819050919050565b61055883610523565b61056c61056482610545565b8484546104c7565b825550505050565b600090565b610581610574565b61058c81848461054f565b505050565b5b818110156105b0576105a5600082610579565b600181019050610592565b5050565b601f8211156105f5576105c681610495565b6105cf846104aa565b810160208510156105de578190505b6105f26105ea856104aa565b830182610591565b50505b505050565b600082821c905092915050565b6000610618600019846008026105fa565b1980831691505092915050565b60006106318383610607565b9150826002028217905092915050565b61064a8261042a565b67ffffffffffffffff811115610663576106626101d6565b5b61066d8254610464565b6106788282856105b4565b600060209050601f8311600181146106ab5760008415610699578287015190505b6106a38582610625565b86555061070b565b601f1984166106b986610495565b60005b828110156106e1578489015182556001820191506020850194506020810190506106bc565b868310156106fe57848901516106fa601f891682610607565b8355505b6001600288020188555050505b505050505050565b7f4e487b7100000000000000000000000000000000000000000000000000000000600052601160045260246000fd5b600061074d82610355565b915061075883610355565b925082820261076681610355565b9150828204841483151761077d5761077c610713565b5b5092915050565b600061078f82610355565b915061079a83610355565b92508282019050808211156107b2576107b1610713565b5b92915050565b6112ab806107c76000396000f3fe608060405234801561001057600080fd5b50600436106101005760003560e01c80638da5cb5b11610097578063b7760c8f11610066578063b7760c8f14610277578063cca3e83214610293578063d28d8852146102c3578063dd62ed3e146102e157610100565b80638da5cb5b1461020357806394bf804d1461022157806395d89b411461023d578063ad953d451461025b57610100565b8063313ce567116100d3578063313ce567146101795780633eaaf86b14610197578063481c6a75146101b557806370a08231146101d357610100565b806306fdde0314610105578063095ea7b31461012357806318160ddd1461013f57806323b872dd1461015d575b600080fd5b61010d610311565b60405161011a9190610cfc565b60405180910390f35b61013d60048036038101906101389190610db7565b61039f565b005b610147610472565b6040516101549190610e06565b60405180910390f35b61017760048036038101906101729190610e21565b610478565b005b610181610768565b60405161018e9190610e90565b60405180910390f35b61019f61077b565b6040516101ac9190610e06565b60405180910390f35b6101bd610785565b6040516101ca9190610eba565b60405180910390f35b6101ed60048036038101906101e89190610ed5565b6107a9565b6040516101fa9190610e06565b60405180910390f35b61020b6107c1565b6040516102189190610eba565b60405180910390f35b61023b60048036038101906102369190610f02565b6107e7565b005b610245610883565b6040516102529190610cfc565b60405180910390f35b61027560048036038101906102709190610ed5565b610911565b005b610291600480360381019061028c9190610f02565b6109e4565b005b6102ad60048036038101906102a89190610ed5565b610af9565b6040516102ba9190610e06565b60405180910390f35b6102cb610b42565b6040516102d89190610cfc565b60405180910390f35b6102fb60048036038101906102f69190610f42565b610bd4565b6040516103089190610e06565b60405180910390f35b6002805461031e90610fb1565b80601f016020809104026020016040519081016040528092919081815260200182805461034a90610fb1565b80156103975780601f1061036c57610100808354040283529160200191610397565b820191906000526020600020905b81548152906001019060200180831161037a57829003601f168201915b505050505081565b80600760003373ffffffffffffffffffffffffffffffffffffffff1673ffffffffffffffffffffffffffffffffffffffff16815260200190815260200160002060008473ffffffffffffffffffffffffffffffffffffffff1673ffffffffffffffffffffffffffffffffffffffff168152602001908152602001600020819055508173ffffffffffffffffffffffffffffffffffffffff167f1e4109814b4fb1210f81ef6540a9bf7e5834ff79536859d16d6398f0e417c44f826040516104669190610e06565b60405180910390a25050565b60055481565b600033905081600760008673ffffffffffffffffffffffffffffffffffffffff1673ffffffffffffffffffffffffffffffffffffffff16815260200190815260200160002060008373ffffffffffffffffffffffffffffffffffffffff1673ffffffffffffffffffffffffffffffffffffffff16815260200190815260200160002054101561053c576040517f08c379a00000000000000000000000000000000000000000000000000000000081526004016105339061102e565b60405180910390fd5b81600660008673ffffffffffffffffffffffffffffffffffffffff1673ffffffffffffffffffffffffffffffffffffffff1681526020019081526020016000205410156105be576040517f08c379a00000000000000000000000000000000000000000000000000000000081526004016105b59061109a565b60405180910390fd5b81600760008673ffffffffffffffffffffffffffffffffffffffff1673ffffffffffffffffffffffffffffffffffffffff16815260200190815260200160002060003373ffffffffffffffffffffffffffffffffffffffff1673ffffffffffffffffffffffffffffffffffffffff168152602001908152602001600020600082825461064a91906110e9565b9250508190555081600660008673ffffffffffffffffffffffffffffffffffffffff1673ffffffffffffffffffffffffffffffffffffffff16815260200190815260200160002060008282546106a091906110e9565b9250508190555081600660008573ffffffffffffffffffffffffffffffffffffffff1673ffffffffffffffffffffffffffffffffffffffff16815260200190815260200160002060008282546106f6919061111d565b925050819055508273ffffffffffffffffffffffffffffffffffffffff168473ffffffffffffffffffffffffffffffffffffffff167fddf252ad1be2c89b69c2b068fc378daa952ba7f163c4a11628f55a4df523b3ef8460405161075a9190610e06565b60405180910390a350505050565b600460009054906101000a900460ff1681565b6000600554905090565b60008054906101000a900473ffffffffffffffffffffffffffffffffffffffff1681565b60066020528060005260406000206000915090505481565b600160009054906101000a900473ffffffffffffffffffffffffffffffffffffffff1681565b60008054906101000a900473ffffffffffffffffffffffffffffffffffffffff1673ffffffffffffffffffffffffffffffffffffffff163373ffffffffffffffffffffffffffffffffffffffff1614610875576040517f08c379a000000000000000000000000000000000000000000000000000000000815260040161086c906111c3565b60405180910390fd5b61087f8282610bf9565b5050565b6003805461089090610fb1565b80601f01602080910402602001604051908101604052809291908181526020018280546108bc90610fb1565b80156109095780601f106108de57610100808354040283529160200191610909565b820191906000526020600020905b8154815290600101906020018083116108ec57829003601f168201915b505050505081565b600160009054906101000a900473ffffffffffffffffffffffffffffffffffffffff1673ffffffffffffffffffffffffffffffffffffffff163373ffffffffffffffffffffffffffffffffffffffff16146109a1576040517f08c379a000000000000000000000000000000000000000000000000000000000815260040161099890611255565b60405180910390fd5b806000806101000a81548173ffffffffffffffffffffffffffffffffffffffff021916908373ffffffffffffffffffffffffffffffffffffffff16021790555050565b81600660003373ffffffffffffffffffffffffffffffffffffffff1673ffffffffffffffffffffffffffffffffffffffff1681526020019081526020016000206000828254610a3391906110e9565b9250508190555081600660008373ffffffffffffffffffffffffffffffffffffffff1673ffffffffffffffffffffffffffffffffffffffff1681526020019081526020016000206000828254610a89919061111d565b925050819055508073ffffffffffffffffffffffffffffffffffffffff163373ffffffffffffffffffffffffffffffffffffffff167fddf252ad1be2c89b69c2b068fc378daa952ba7f163c4a11628f55a4df523b3ef84604051610aed9190610e06565b60405180910390a35050565b6000600660008373ffffffffffffffffffffffffffffffffffffffff1673ffffffffffffffffffffffffffffffffffffffff168152602001908152602001600020549050919050565b606060028054610b5190610fb1565b80601f0160208091040260200160405190810160405280929190818152602001828054610b7d90610fb1565b8015610bca5780601f10610b9f57610100808354040283529160200191610bca565b820191906000526020600020905b815481529060010190602001808311610bad57829003601f168201915b5050505050905090565b6007602052816000526040600020602052806000526040600020600091509150505481565b8160056000828254610c0b919061111d565b9250508190555081600660008373ffffffffffffffffffffffffffffffffffffffff1673ffffffffffffffffffffffffffffffffffffffff1681526020019081526020016000206000828254610c61919061111d565b925050819055505050565b600081519050919050565b600082825260208201905092915050565b60005b83811015610ca6578082015181840152602081019050610c8b565b60008484015250505050565b6000601f19601f8301169050919050565b6000610cce82610c6c565b610cd88185610c77565b9350610ce8818560208601610c88565b610cf181610cb2565b840191505092915050565b60006020820190508181036000830152610d168184610cc3565b905092915050565b600080fd5b600073ffffffffffffffffffffffffffffffffffffffff82169050919050565b6000610d4e82610d23565b9050919050565b610d5e81610d43565b8114610d6957600080fd5b50565b600081359050610d7b81610d55565b92915050565b6000819050919050565b610d9481610d81565b8114610d9f57600080fd5b50565b600081359050610db181610d8b565b92915050565b60008060408385031215610dce57610dcd610d1e565b5b6000610ddc85828601610d6c565b9250506020610ded85828601610da2565b9150509250929050565b610e0081610d81565b82525050565b6000602082019050610e1b6000830184610df7565b92915050565b600080600060608486031215610e3a57610e39610d1e565b5b6000610e4886828701610d6c565b9350506020610e5986828701610d6c565b9250506040610e6a86828701610da2565b9150509250925092565b600060ff82169050919050565b610e8a81610e74565b82525050565b6000602082019050610ea56000830184610e81565b92915050565b610eb481610d43565b82525050565b6000602082019050610ecf6000830184610eab565b92915050565b600060208284031215610eeb57610eea610d1e565b5b6000610ef984828501610d6c565b91505092915050565b60008060408385031215610f1957610f18610d1e565b5b6000610f2785828601610da2565b9250506020610f3885828601610d6c565b9150509250929050565b60008060408385031215610f5957610f58610d1e565b5b6000610f6785828601610d6c565b9250506020610f7885828601610d6c565b9150509250929050565b7f4e487b7100000000000000000000000000000000000000000000000000000000600052602260045260246000fd5b60006002820490506001821680610fc957607f821691505b602082108103610fdc57610fdb610f82565b5b50919050565b7f696e73756666696369656e7420616c6c6f77616e636500000000000000000000600082015250565b6000611018601683610c77565b915061102382610fe2565b602082019050919050565b600060208201905081810360008301526110478161100b565b9050919050565b7f696e73756666696369656e742062616c616e6365000000000000000000000000600082015250565b6000611084601483610c77565b915061108f8261104e565b602082019050919050565b600060208201905081810360008301526110b381611077565b9050919050565b7f4e487b7100000000000000000000000000000000000000000000000000000000600052601160045260246000fd5b60006110f482610d81565b91506110ff83610d81565b9250828203905081811115611117576111166110ba565b5b92915050565b600061112882610d81565b915061113383610d81565b925082820190508082111561114b5761114a6110ba565b5b92915050565b7f6f6e6c79206d616e616765722063616e2063616c6c20746869732066756e637460008201527f696f6e0000000000000000000000000000000000000000000000000000000000602082015250565b60006111ad602383610c77565b91506111b882611151565b604082019050919050565b600060208201905081810360008301526111dc816111a0565b9050919050565b7f6f6e6c79206f776e65722063616e2063616c6c20746869732066756e6374696f60008201527f6e00000000000000000000000000000000000000000000000000000000000000602082015250565b600061123f602183610c77565b915061124a826111e3565b604082019050919050565b6000602082019050818103600083015261126e81611232565b905091905056fea2646970667358221220a3920d82494c86cc16b89fb97a3f100884c49b83fe71ab93f08207e76b91db9a64736f6c634300081c0033",
  "linkReferences": {},
  "deployedLinkReferences": {}
}