{
  "_format": "hh-sol-artifact-1",
  "contractName": "TinyBank",
  "sourceName": "contracts/TinyBank.sol",
  "abi": [
    {
      "inputs": [
        {
          "internalType": "contract IMyToken",
          "name": "_stakingToken",
          "type": "address"
        }
      ],
      "stateMutability": "nonpayable",
      "type": "constructor"
    },
    {
      "anonymous": false,
      "inputs": [
        {
          "indexed": false,
          "internalType": "address",
          "name": "from",
          "type": "address"
        },
        {
          "indexed": false,
          "internalType": "uint256",
          "name": "amount",
          "type": "uint256"
        }
      ],
      "name": "Staked",
      "type": "event"
    },
    {
      "anonymous": false,
      "inputs": [
        {
          "indexed": false,
          "internalType": "uint256",
          "name": "amount",
          "type": "uint256"
        },
        {
          "indexed": false,
          "internalType": "address",
          "name": "to",
          "type": "address"
        }
      ],
      "name": "Withdraw",
      "type": "event"
    },
    {
      "inputs": [
        {
          "internalType": "address",
          "name": "_newManager",
          "type": "address"
        }
      ],
      "name": "addManager",
      "outputs": [],
      "stateMutability": "nonpayable",
      "type": "function"
    },
    {
      "inputs": [],
      "name": "confirm",
      "outputs": [],
      "stateMutability": "nonpayable",
      "type": "function"
    },
    {
      "inputs": [
        {
          "internalType": "address",
          "name": "",
          "type": "address"
        }
      ],
      "name": "confirmed",
      "outputs": [
        {
          "internalType": "bool",
          "name": "",
          "type": "bool"
        }
      ],
      "stateMutability": "view",
      "type": "function"
    },
    {
      "inputs": [
        {
          "internalType": "address",
          "name": "",
          "type": "address"
        }
      ],
      "name": "isManager",
      "outputs": [
        {
          "internalType": "bool",
          "name": "",
          "type": "bool"
        }
      ],
      "stateMutability": "view",
      "type": "function"
    },
    {
      "inputs": [
        {
          "internalType": "address",
          "name": "",
          "type": "address"
        }
      ],
      "name": "lastClaimedBlock",
      "outputs": [
        {
          "internalType": "uint256",
          "name": "",
          "type": "uint256"
        }
      ],
      "stateMutability": "view",
      "type": "function"
    },
    {
      "inputs": [
        {
          "internalType": "uint256",
          "name": "",
          "type": "uint256"
        }
      ],
      "name": "managers",
      "outputs": [
        {
          "internalType": "address",
          "name": "",
          "type": "address"
        }
      ],
      "stateMutability": "view",
      "type": "function"
    },
    {
      "inputs": [],
      "name": "owner",
      "outputs": [
        {
          "internalType": "address",
          "name": "",
          "type": "address"
        }
      ],
      "stateMutability": "view",
      "type": "function"
    },
    {
      "inputs": [
        {
          "internalType": "address",
          "name": "_managerToRemove",
          "type": "address"
        }
      ],
      "name": "removeManager",
      "outputs": [],
      "stateMutability": "nonpayable",
      "type": "function"
    },
    {
      "inputs": [],
      "name": "rewardPerBlock",
      "outputs": [
        {
          "internalType": "uint256",
          "name": "",
          "type": "uint256"
        }
      ],
      "stateMutability": "view",
      "type": "function"
    },
    {
      "inputs": [
        {
          "internalType": "uint256",
          "name": "_amount",
          "type": "uint256"
        }
      ],
      "name": "setRewardPerBlock",
      "outputs": [],
      "stateMutability": "nonpayable",
      "type": "function"
    },
    {
      "inputs": [
        {
          "internalType": "uint256",
          "name": "_amount",
          "type": "uint256"
        }
      ],
      "name": "stake",
      "outputs": [],
      "stateMutability": "nonpayable",
      "type": "function"
    },
    {
      "inputs": [
        {
          "internalType": "address",
          "name": "",
          "type": "address"
        }
      ],
      "name": "staked",
      "outputs": [
        {
          "internalType": "uint256",
          "name": "",
          "type": "uint256"
        }
      ],
      "stateMutability": "view",
      "type": "function"
    },
    {
      "inputs": [
        {
          "internalType": "uint256",
          "name": "",
          "type": "uint256"
        }
      ],
      "name": "stakedUsers",
      "outputs": [
        {
          "internalType": "address",
          "name": "",
          "type": "address"
        }
      ],
      "stateMutability": "view",
      "type": "function"
    },
    {
      "inputs": [],
      "name": "stakingToken",
      "outputs": [
        {
          "internalType": "contract IMyToken",
          "name": "",
          "type": "address"
        }
      ],
      "stateMutability": "view",
      "type": "function"
    },
    {
      "inputs": [],
      "name": "totalStaked",
      "outputs": [
        {
          "internalType": "uint256",
          "name": "",
          "type": "uint256"
        }
      ],
      "stateMutability": "view",
      "type": "function"
    },
    {
      "inputs": [
        {
          "internalType": "uint256",
          "name": "_amount",
          "type": "uint256"
        }
      ],
      "name": "withdraw",
      "outputs": [],
      "stateMutability": "nonpayable",
      "type": "function"
    }
  ],
  "bytecode": "0x6080604052670de0b6b3a764000060045534801561001c57600080fd5b506040516120ef3803806120ef833981810160405281019061003e919061030e565b33806000806101000a81548173ffffffffffffffffffffffffffffffffffffffff021916908373ffffffffffffffffffffffffffffffffffffffff16021790555061008e816100df60201b60201c565b5080600660006101000a81548173ffffffffffffffffffffffffffffffffffffffff021916908373ffffffffffffffffffffffffffffffffffffffff16021790555060045460058190555050610424565b600073ffffffffffffffffffffffffffffffffffffffff168173ffffffffffffffffffffffffffffffffffffffff160361014e576040517f08c379a000000000000000000000000000000000000000000000000000000000815260040161014590610398565b60405180910390fd5b600260008273ffffffffffffffffffffffffffffffffffffffff1673ffffffffffffffffffffffffffffffffffffffff16815260200190815260200160002060009054906101000a900460ff16156101db576040517f08c379a00000000000000000000000000000000000000000000000000000000081526004016101d290610404565b60405180910390fd5b6001600260008373ffffffffffffffffffffffffffffffffffffffff1673ffffffffffffffffffffffffffffffffffffffff16815260200190815260200160002060006101000a81548160ff0219169083151502179055506001819080600181540180825580915050600190039060005260206000200160009091909190916101000a81548173ffffffffffffffffffffffffffffffffffffffff021916908373ffffffffffffffffffffffffffffffffffffffff16021790555050565b600080fd5b600073ffffffffffffffffffffffffffffffffffffffff82169050919050565b60006102c98261029e565b9050919050565b60006102db826102be565b9050919050565b6102eb816102d0565b81146102f657600080fd5b50565b600081519050610308816102e2565b92915050565b60006020828403121561032457610323610299565b5b6000610332848285016102f9565b91505092915050565b600082825260208201905092915050565b7f496e76616c6964206d616e616765722061646472657373000000000000000000600082015250565b600061038260178361033b565b915061038d8261034c565b602082019050919050565b600060208201905081810360008301526103b181610375565b9050919050565b7f4d616e6167657220616c72656164792065786973747300000000000000000000600082015250565b60006103ee60168361033b565b91506103f9826103b8565b602082019050919050565b6000602082019050818103600083015261041d816103e1565b9050919050565b611cbc806104336000396000f3fe608060405234801561001057600080fd5b50600436106101005760003560e01c806398807d8411610097578063ac6e653f11610066578063ac6e653f14610287578063bb872b4a146102b7578063c19e82d5146102d3578063f3ae24151461030357610100565b806398807d84146101ef578063a694fc3a1461021f578063a9d997951461023b578063ac18de431461026b57610100565b806372f702f3116100d357806372f702f314610177578063817b1cd2146101955780638ae39cac146101b35780638da5cb5b146101d157610100565b80632d06177a146101055780632e1a7d4d146101215780633d39c2601461013d5780637022b58e1461016d575b600080fd5b61011f600480360381019061011a91906114cf565b610333565b005b61013b60048036038101906101369190611532565b6103cd565b005b61015760048036038101906101529190611532565b6107a4565b604051610164919061156e565b60405180910390f35b6101756107e3565b005b61017f6108c9565b60405161018c91906115e8565b60405180910390f35b61019d6108ef565b6040516101aa9190611612565b60405180910390f35b6101bb6108f5565b6040516101c89190611612565b60405180910390f35b6101d96108fb565b6040516101e6919061156e565b60405180910390f35b610209600480360381019061020491906114cf565b61091f565b6040516102169190611612565b60405180910390f35b61023960048036038101906102349190611532565b610937565b005b610255600480360381019061025091906114cf565b610c8f565b6040516102629190611648565b60405180910390f35b610285600480360381019061028091906114cf565b610caf565b005b6102a1600480360381019061029c9190611532565b611001565b6040516102ae919061156e565b60405180910390f35b6102d160048036038101906102cc9190611532565b611040565b005b6102ed60048036038101906102e891906114cf565b611099565b6040516102fa9190611612565b60405180910390f35b61031d600480360381019061031891906114cf565b6110b1565b60405161032a9190611648565b60405180910390f35b60008054906101000a900473ffffffffffffffffffffffffffffffffffffffff1673ffffffffffffffffffffffffffffffffffffffff163373ffffffffffffffffffffffffffffffffffffffff16146103c1576040517f08c379a00000000000000000000000000000000000000000000000000000000081526004016103b8906116e6565b60405180910390fd5b6103ca816110d1565b50565b336000600760008373ffffffffffffffffffffffffffffffffffffffff1673ffffffffffffffffffffffffffffffffffffffff168152602001908152602001600020541115610560576000600960008373ffffffffffffffffffffffffffffffffffffffff1673ffffffffffffffffffffffffffffffffffffffff16815260200190815260200160002054436104639190611735565b90506000600854600760008573ffffffffffffffffffffffffffffffffffffffff1673ffffffffffffffffffffffffffffffffffffffff16815260200190815260200160002054600554846104b89190611769565b6104c29190611769565b6104cc91906117da565b9050600660009054906101000a900473ffffffffffffffffffffffffffffffffffffffff1673ffffffffffffffffffffffffffffffffffffffff166394bf804d82856040518363ffffffff1660e01b815260040161052b92919061180b565b600060405180830381600087803b15801561054557600080fd5b505af1158015610559573d6000803e3d6000fd5b5050505050505b43600960008373ffffffffffffffffffffffffffffffffffffffff1673ffffffffffffffffffffffffffffffffffffffff1681526020019081526020016000208190555081600760003373ffffffffffffffffffffffffffffffffffffffff1673ffffffffffffffffffffffffffffffffffffffff168152602001908152602001600020541015610626576040517f08c379a000000000000000000000000000000000000000000000000000000000815260040161061d90611880565b60405180910390fd5b60008211610669576040517f08c379a0000000000000000000000000000000000000000000000000000000008152600401610660906118ec565b60405180910390fd5b600660009054906101000a900473ffffffffffffffffffffffffffffffffffffffff1673ffffffffffffffffffffffffffffffffffffffff1663b7760c8f83336040518363ffffffff1660e01b81526004016106c692919061180b565b600060405180830381600087803b1580156106e057600080fd5b505af11580156106f4573d6000803e3d6000fd5b5050505081600760003373ffffffffffffffffffffffffffffffffffffffff1673ffffffffffffffffffffffffffffffffffffffff16815260200190815260200160002060008282546107479190611735565b9250508190555081600860008282546107609190611735565b925050819055507f8353ffcac0876ad14e226d9783c04540bfebf13871e868157d2a391cad98e918823360405161079892919061180b565b60405180910390a15050565b600181815481106107b457600080fd5b906000526020600020016000915054906101000a900473ffffffffffffffffffffffffffffffffffffffff1681565b600260003373ffffffffffffffffffffffffffffffffffffffff1673ffffffffffffffffffffffffffffffffffffffff16815260200190815260200160002060009054906101000a900460ff1661086f576040517f08c379a000000000000000000000000000000000000000000000000000000000815260040161086690611958565b60405180910390fd5b6001600360003373ffffffffffffffffffffffffffffffffffffffff1673ffffffffffffffffffffffffffffffffffffffff16815260200190815260200160002060006101000a81548160ff021916908315150217905550565b600660009054906101000a900473ffffffffffffffffffffffffffffffffffffffff1681565b60085481565b60055481565b60008054906101000a900473ffffffffffffffffffffffffffffffffffffffff1681565b60076020528060005260406000206000915090505481565b336000600760008373ffffffffffffffffffffffffffffffffffffffff1673ffffffffffffffffffffffffffffffffffffffff168152602001908152602001600020541115610aca576000600960008373ffffffffffffffffffffffffffffffffffffffff1673ffffffffffffffffffffffffffffffffffffffff16815260200190815260200160002054436109cd9190611735565b90506000600854600760008573ffffffffffffffffffffffffffffffffffffffff1673ffffffffffffffffffffffffffffffffffffffff1681526020019081526020016000205460055484610a229190611769565b610a2c9190611769565b610a3691906117da565b9050600660009054906101000a900473ffffffffffffffffffffffffffffffffffffffff1673ffffffffffffffffffffffffffffffffffffffff166394bf804d82856040518363ffffffff1660e01b8152600401610a9592919061180b565b600060405180830381600087803b158015610aaf57600080fd5b505af1158015610ac3573d6000803e3d6000fd5b5050505050505b43600960008373ffffffffffffffffffffffffffffffffffffffff1673ffffffffffffffffffffffffffffffffffffffff168152602001908152602001600020819055506000821015610b52576040517f08c379a0000000000000000000000000000000000000000000000000000000008152600401610b49906119c4565b60405180910390fd5b600660009054906101000a900473ffffffffffffffffffffffffffffffffffffffff1673ffffffffffffffffffffffffffffffffffffffff166323b872dd3330856040518463ffffffff1660e01b8152600401610bb1939291906119e4565b600060405180830381600087803b158015610bcb57600080fd5b505af1158015610bdf573d6000803e3d6000fd5b5050505081600760003373ffffffffffffffffffffffffffffffffffffffff1673ffffffffffffffffffffffffffffffffffffffff1681526020019081526020016000206000828254610c329190611a1b565b925050819055508160086000828254610c4b9190611a1b565b925050819055507f9e71bc8eea02a63969f509818f2dafb9254532904319f9dbda79b67bd34a5f3d3383604051610c83929190611a4f565b60405180910390a15050565b60036020528060005260406000206000915054906101000a900460ff1681565b60008054906101000a900473ffffffffffffffffffffffffffffffffffffffff1673ffffffffffffffffffffffffffffffffffffffff163373ffffffffffffffffffffffffffffffffffffffff1614610d3d576040517f08c379a0000000000000000000000000000000000000000000000000000000008152600401610d34906116e6565b60405180910390fd5b600260008273ffffffffffffffffffffffffffffffffffffffff1673ffffffffffffffffffffffffffffffffffffffff16815260200190815260200160002060009054906101000a900460ff16610dc9576040517f08c379a0000000000000000000000000000000000000000000000000000000008152600401610dc090611ac4565b60405180910390fd5b6000600260008373ffffffffffffffffffffffffffffffffffffffff1673ffffffffffffffffffffffffffffffffffffffff16815260200190815260200160002060006101000a81548160ff0219169083151502179055506000600360008373ffffffffffffffffffffffffffffffffffffffff1673ffffffffffffffffffffffffffffffffffffffff16815260200190815260200160002060006101000a81548160ff02191690831515021790555060005b600180549050811015610ffd578173ffffffffffffffffffffffffffffffffffffffff1660018281548110610eb457610eb3611ae4565b5b9060005260206000200160009054906101000a900473ffffffffffffffffffffffffffffffffffffffff1673ffffffffffffffffffffffffffffffffffffffff1603610ff0576001808080549050610f0c9190611735565b81548110610f1d57610f1c611ae4565b5b9060005260206000200160009054906101000a900473ffffffffffffffffffffffffffffffffffffffff1660018281548110610f5c57610f5b611ae4565b5b9060005260206000200160006101000a81548173ffffffffffffffffffffffffffffffffffffffff021916908373ffffffffffffffffffffffffffffffffffffffff1602179055506001805480610fb657610fb5611b13565b5b6001900381819060005260206000200160006101000a81549073ffffffffffffffffffffffffffffffffffffffff02191690559055610ffd565b8080600101915050610e7c565b5050565b600a818154811061101157600080fd5b906000526020600020016000915054906101000a900473ffffffffffffffffffffffffffffffffffffffff1681565b61104861128b565b611087576040517f08c379a000000000000000000000000000000000000000000000000000000000815260040161107e90611b8e565b60405180910390fd5b61108f61135d565b8060058190555050565b60096020528060005260406000206000915090505481565b60026020528060005260406000206000915054906101000a900460ff1681565b600073ffffffffffffffffffffffffffffffffffffffff168173ffffffffffffffffffffffffffffffffffffffff1603611140576040517f08c379a000000000000000000000000000000000000000000000000000000000815260040161113790611bfa565b60405180910390fd5b600260008273ffffffffffffffffffffffffffffffffffffffff1673ffffffffffffffffffffffffffffffffffffffff16815260200190815260200160002060009054906101000a900460ff16156111cd576040517f08c379a00000000000000000000000000000000000000000000000000000000081526004016111c490611c66565b60405180910390fd5b6001600260008373ffffffffffffffffffffffffffffffffffffffff1673ffffffffffffffffffffffffffffffffffffffff16815260200190815260200160002060006101000a81548160ff0219169083151502179055506001819080600181540180825580915050600190039060005260206000200160009091909190916101000a81548173ffffffffffffffffffffffffffffffffffffffff021916908373ffffffffffffffffffffffffffffffffffffffff16021790555050565b600080600090505b600180549050811015611354576000600182815481106112b6576112b5611ae4565b5b9060005260206000200160009054906101000a900473ffffffffffffffffffffffffffffffffffffffff16905060001515600360008373ffffffffffffffffffffffffffffffffffffffff1673ffffffffffffffffffffffffffffffffffffffff16815260200190815260200160002060009054906101000a900460ff161515036113465760009250505061135a565b508080600101915050611293565b50600190505b90565b60005b6001805490508110156114695760006001828154811061138357611382611ae4565b5b9060005260206000200160009054906101000a900473ffffffffffffffffffffffffffffffffffffffff169050600360008273ffffffffffffffffffffffffffffffffffffffff1673ffffffffffffffffffffffffffffffffffffffff16815260200190815260200160002060009054906101000a900460ff161561145b576000600360008373ffffffffffffffffffffffffffffffffffffffff1673ffffffffffffffffffffffffffffffffffffffff16815260200190815260200160002060006101000a81548160ff0219169083151502179055505b508080600101915050611360565b50565b600080fd5b600073ffffffffffffffffffffffffffffffffffffffff82169050919050565b600061149c82611471565b9050919050565b6114ac81611491565b81146114b757600080fd5b50565b6000813590506114c9816114a3565b92915050565b6000602082840312156114e5576114e461146c565b5b60006114f3848285016114ba565b91505092915050565b6000819050919050565b61150f816114fc565b811461151a57600080fd5b50565b60008135905061152c81611506565b92915050565b6000602082840312156115485761154761146c565b5b60006115568482850161151d565b91505092915050565b61156881611491565b82525050565b6000602082019050611583600083018461155f565b92915050565b6000819050919050565b60006115ae6115a96115a484611471565b611589565b611471565b9050919050565b60006115c082611593565b9050919050565b60006115d2826115b5565b9050919050565b6115e2816115c7565b82525050565b60006020820190506115fd60008301846115d9565b92915050565b61160c816114fc565b82525050565b60006020820190506116276000830184611603565b92915050565b60008115159050919050565b6116428161162d565b82525050565b600060208201905061165d6000830184611639565b92915050565b600082825260208201905092915050565b7f4f6e6c79206f776e65722063616e2063616c6c20746869732066756e6374696f60008201527f6e00000000000000000000000000000000000000000000000000000000000000602082015250565b60006116d0602183611663565b91506116db82611674565b604082019050919050565b600060208201905081810360008301526116ff816116c3565b9050919050565b7f4e487b7100000000000000000000000000000000000000000000000000000000600052601160045260246000fd5b6000611740826114fc565b915061174b836114fc565b925082820390508181111561176357611762611706565b5b92915050565b6000611774826114fc565b915061177f836114fc565b925082820261178d816114fc565b915082820484148315176117a4576117a3611706565b5b5092915050565b7f4e487b7100000000000000000000000000000000000000000000000000000000600052601260045260246000fd5b60006117e5826114fc565b91506117f0836114fc565b925082611800576117ff6117ab565b5b828204905092915050565b60006040820190506118206000830185611603565b61182d602083018461155f565b9392505050565b7f696e73756666696369656e74207374616b656420746f6b656e00000000000000600082015250565b600061186a601983611663565b915061187582611834565b602082019050919050565b600060208201905081810360008301526118998161185d565b9050919050565b7f63616e6e6f742077697468647261772030000000000000000000000000000000600082015250565b60006118d6601183611663565b91506118e1826118a0565b602082019050919050565b60006020820190508181036000830152611905816118c9565b9050919050565b7f596f7520617265206e6f742061206d616e616765720000000000000000000000600082015250565b6000611942601583611663565b915061194d8261190c565b602082019050919050565b6000602082019050818103600083015261197181611935565b9050919050565b7f63616e6e6f74207374616b652030000000000000000000000000000000000000600082015250565b60006119ae600e83611663565b91506119b982611978565b602082019050919050565b600060208201905081810360008301526119dd816119a1565b9050919050565b60006060820190506119f9600083018661155f565b611a06602083018561155f565b611a136040830184611603565b949350505050565b6000611a26826114fc565b9150611a31836114fc565b9250828201905080821115611a4957611a48611706565b5b92915050565b6000604082019050611a64600083018561155f565b611a716020830184611603565b9392505050565b7f41646472657373206973206e6f742061206d616e616765720000000000000000600082015250565b6000611aae601883611663565b9150611ab982611a78565b602082019050919050565b60006020820190508181036000830152611add81611aa1565b9050919050565b7f4e487b7100000000000000000000000000000000000000000000000000000000600052603260045260246000fd5b7f4e487b7100000000000000000000000000000000000000000000000000000000600052603160045260246000fd5b7f4e6f7420616c6c20636f6e6669726d6564207965740000000000000000000000600082015250565b6000611b78601583611663565b9150611b8382611b42565b602082019050919050565b60006020820190508181036000830152611ba781611b6b565b9050919050565b7f496e76616c6964206d616e616765722061646472657373000000000000000000600082015250565b6000611be4601783611663565b9150611bef82611bae565b602082019050919050565b60006020820190508181036000830152611c1381611bd7565b9050919050565b7f4d616e6167657220616c72656164792065786973747300000000000000000000600082015250565b6000611c50601683611663565b9150611c5b82611c1a565b602082019050919050565b60006020820190508181036000830152611c7f81611c43565b905091905056fea264697066735822122009db76c781e15b053f3c3568e89a54e0de7b8595cafd4bae1420cddf6554a4ab64736f6c634300081c0033",
  "linkReferences": {},
  "deployedLinkReferences": {}
}