{
  "_format": "hh-sol-artifact-1",
  "contractName": "TinyBank",
  "sourceName": "contracts/TinyBank.sol",
  "abi": [
    {
      "inputs": [
        {
          "internalType": "contract IMyToken",
          "name": "_stakingToken",
          "type": "address"
        },
        {
          "internalType": "address[]",
          "name": "_managers",
          "type": "address[]"
        }
      ],
      "stateMutability": "nonpayable",
      "type": "constructor"
    },
    {
      "anonymous": false,
      "inputs": [
        {
          "indexed": false,
          "internalType": "address",
          "name": "from",
          "type": "address"
        },
        {
          "indexed": false,
          "internalType": "uint256",
          "name": "amount",
          "type": "uint256"
        }
      ],
      "name": "Staked",
      "type": "event"
    },
    {
      "anonymous": false,
      "inputs": [
        {
          "indexed": false,
          "internalType": "uint256",
          "name": "amount",
          "type": "uint256"
        },
        {
          "indexed": false,
          "internalType": "address",
          "name": "to",
          "type": "address"
        }
      ],
      "name": "Withdraw",
      "type": "event"
    },
    {
      "inputs": [],
      "name": "confirm",
      "outputs": [],
      "stateMutability": "nonpayable",
      "type": "function"
    },
    {
      "inputs": [
        {
          "internalType": "uint256",
          "name": "",
          "type": "uint256"
        }
      ],
      "name": "confirmed",
      "outputs": [
        {
          "internalType": "bool",
          "name": "",
          "type": "bool"
        }
      ],
      "stateMutability": "view",
      "type": "function"
    },
    {
      "inputs": [
        {
          "internalType": "address",
          "name": "",
          "type": "address"
        }
      ],
      "name": "lastClaimedBlock",
      "outputs": [
        {
          "internalType": "uint256",
          "name": "",
          "type": "uint256"
        }
      ],
      "stateMutability": "view",
      "type": "function"
    },
    {
      "inputs": [
        {
          "internalType": "uint256",
          "name": "",
          "type": "uint256"
        }
      ],
      "name": "managers",
      "outputs": [
        {
          "internalType": "address",
          "name": "",
          "type": "address"
        }
      ],
      "stateMutability": "view",
      "type": "function"
    },
    {
      "inputs": [],
      "name": "owner",
      "outputs": [
        {
          "internalType": "address",
          "name": "",
          "type": "address"
        }
      ],
      "stateMutability": "view",
      "type": "function"
    },
    {
      "inputs": [],
      "name": "rewardPerBlock",
      "outputs": [
        {
          "internalType": "uint256",
          "name": "",
          "type": "uint256"
        }
      ],
      "stateMutability": "view",
      "type": "function"
    },
    {
      "inputs": [
        {
          "internalType": "uint256",
          "name": "_amount",
          "type": "uint256"
        }
      ],
      "name": "setRewardPerBlock",
      "outputs": [],
      "stateMutability": "nonpayable",
      "type": "function"
    },
    {
      "inputs": [
        {
          "internalType": "uint256",
          "name": "_amount",
          "type": "uint256"
        }
      ],
      "name": "stake",
      "outputs": [],
      "stateMutability": "nonpayable",
      "type": "function"
    },
    {
      "inputs": [
        {
          "internalType": "address",
          "name": "",
          "type": "address"
        }
      ],
      "name": "staked",
      "outputs": [
        {
          "internalType": "uint256",
          "name": "",
          "type": "uint256"
        }
      ],
      "stateMutability": "view",
      "type": "function"
    },
    {
      "inputs": [
        {
          "internalType": "uint256",
          "name": "",
          "type": "uint256"
        }
      ],
      "name": "stakedUsers",
      "outputs": [
        {
          "internalType": "address",
          "name": "",
          "type": "address"
        }
      ],
      "stateMutability": "view",
      "type": "function"
    },
    {
      "inputs": [],
      "name": "stakingToken",
      "outputs": [
        {
          "internalType": "contract IMyToken",
          "name": "",
          "type": "address"
        }
      ],
      "stateMutability": "view",
      "type": "function"
    },
    {
      "inputs": [],
      "name": "totalStaked",
      "outputs": [
        {
          "internalType": "uint256",
          "name": "",
          "type": "uint256"
        }
      ],
      "stateMutability": "view",
      "type": "function"
    },
    {
      "inputs": [
        {
          "internalType": "uint256",
          "name": "_amount",
          "type": "uint256"
        }
      ],
      "name": "withdraw",
      "outputs": [],
      "stateMutability": "nonpayable",
      "type": "function"
    }
  ],
  "bytecode": "0x6080604052670de0b6b3a764000060075534801561001c57600080fd5b50604051611724380380611724833981810160405281019061003e9190610364565b3381816000806101000a81548173ffffffffffffffffffffffffffffffffffffffff021916908373ffffffffffffffffffffffffffffffffffffffff16021790555060005b60058110156101075781818151811061009f5761009e6103c0565b5b6020026020010151600182600581106100bb576100ba6103c0565b5b0160006101000a81548173ffffffffffffffffffffffffffffffffffffffff021916908373ffffffffffffffffffffffffffffffffffffffff1602179055508080600101915050610083565b50505081600960006101000a81548173ffffffffffffffffffffffffffffffffffffffff021916908373ffffffffffffffffffffffffffffffffffffffff16021790555060075460088190555050506103ef565b6000604051905090565b600080fd5b600080fd5b600073ffffffffffffffffffffffffffffffffffffffff82169050919050565b600061019a8261016f565b9050919050565b60006101ac8261018f565b9050919050565b6101bc816101a1565b81146101c757600080fd5b50565b6000815190506101d9816101b3565b92915050565b600080fd5b6000601f19601f8301169050919050565b7f4e487b7100000000000000000000000000000000000000000000000000000000600052604160045260246000fd5b61022d826101e4565b810181811067ffffffffffffffff8211171561024c5761024b6101f5565b5b80604052505050565b600061025f61015b565b905061026b8282610224565b919050565b600067ffffffffffffffff82111561028b5761028a6101f5565b5b602082029050602081019050919050565b600080fd5b6102aa8161018f565b81146102b557600080fd5b50565b6000815190506102c7816102a1565b92915050565b60006102e06102db84610270565b610255565b905080838252602082019050602084028301858111156103035761030261029c565b5b835b8181101561032c578061031888826102b8565b845260208401935050602081019050610305565b5050509392505050565b600082601f83011261034b5761034a6101df565b5b815161035b8482602086016102cd565b91505092915050565b6000806040838503121561037b5761037a610165565b5b6000610389858286016101ca565b925050602083015167ffffffffffffffff8111156103aa576103a961016a565b5b6103b685828601610336565b9150509250929050565b7f4e487b7100000000000000000000000000000000000000000000000000000000600052603260045260246000fd5b611326806103fe6000396000f3fe608060405234801561001057600080fd5b50600436106100cf5760003560e01c80638da5cb5b1161008c578063ac6e653f11610066578063ac6e653f146101ee578063bb872b4a1461021e578063c19e82d51461023a578063f3ac27321461026a576100cf565b80638da5cb5b1461018457806398807d84146101a2578063a694fc3a146101d2576100cf565b80632e1a7d4d146100d45780633d39c260146100f05780637022b58e1461012057806372f702f31461012a578063817b1cd2146101485780638ae39cac14610166575b600080fd5b6100ee60048036038101906100e99190610d16565b61029a565b005b61010a60048036038101906101059190610d16565b610671565b6040516101179190610d84565b60405180910390f35b6101286106a7565b005b61013261077d565b60405161013f9190610dfe565b60405180910390f35b6101506107a3565b60405161015d9190610e28565b60405180910390f35b61016e6107a9565b60405161017b9190610e28565b60405180910390f35b61018c6107af565b6040516101999190610d84565b60405180910390f35b6101bc60048036038101906101b79190610e6f565b6107d3565b6040516101c99190610e28565b60405180910390f35b6101ec60048036038101906101e79190610d16565b6107eb565b005b61020860048036038101906102039190610d16565b610b43565b6040516102159190610d84565b60405180910390f35b61023860048036038101906102339190610d16565b610b82565b005b610254600480360381019061024f9190610e6f565b610be2565b6040516102619190610e28565b60405180910390f35b610284600480360381019061027f9190610d16565b610bfa565b6040516102919190610eb7565b60405180910390f35b336000600a60008373ffffffffffffffffffffffffffffffffffffffff1673ffffffffffffffffffffffffffffffffffffffff16815260200190815260200160002054111561042d576000600c60008373ffffffffffffffffffffffffffffffffffffffff1673ffffffffffffffffffffffffffffffffffffffff16815260200190815260200160002054436103309190610f01565b90506000600b54600a60008573ffffffffffffffffffffffffffffffffffffffff1673ffffffffffffffffffffffffffffffffffffffff16815260200190815260200160002054600854846103859190610f35565b61038f9190610f35565b6103999190610fa6565b9050600960009054906101000a900473ffffffffffffffffffffffffffffffffffffffff1673ffffffffffffffffffffffffffffffffffffffff166394bf804d82856040518363ffffffff1660e01b81526004016103f8929190610fd7565b600060405180830381600087803b15801561041257600080fd5b505af1158015610426573d6000803e3d6000fd5b5050505050505b43600c60008373ffffffffffffffffffffffffffffffffffffffff1673ffffffffffffffffffffffffffffffffffffffff1681526020019081526020016000208190555081600a60003373ffffffffffffffffffffffffffffffffffffffff1673ffffffffffffffffffffffffffffffffffffffff1681526020019081526020016000205410156104f3576040517f08c379a00000000000000000000000000000000000000000000000000000000081526004016104ea9061105d565b60405180910390fd5b60008211610536576040517f08c379a000000000000000000000000000000000000000000000000000000000815260040161052d906110c9565b60405180910390fd5b600960009054906101000a900473ffffffffffffffffffffffffffffffffffffffff1673ffffffffffffffffffffffffffffffffffffffff1663b7760c8f83336040518363ffffffff1660e01b8152600401610593929190610fd7565b600060405180830381600087803b1580156105ad57600080fd5b505af11580156105c1573d6000803e3d6000fd5b5050505081600a60003373ffffffffffffffffffffffffffffffffffffffff1673ffffffffffffffffffffffffffffffffffffffff16815260200190815260200160002060008282546106149190610f01565b9250508190555081600b600082825461062d9190610f01565b925050819055507f8353ffcac0876ad14e226d9783c04540bfebf13871e868157d2a391cad98e9188233604051610665929190610fd7565b60405180910390a15050565b6001816005811061068157600080fd5b016000915054906101000a900473ffffffffffffffffffffffffffffffffffffffff1681565b6000805b6005811015610732573373ffffffffffffffffffffffffffffffffffffffff163373ffffffffffffffffffffffffffffffffffffffff16036107255760019150600160068260058110610701576107006110e9565b5b602091828204019190066101000a81548160ff021916908315150217905550610732565b80806001019150506106ab565b50600115158115151461077a576040517f08c379a000000000000000000000000000000000000000000000000000000000815260040161077190611164565b60405180910390fd5b50565b600960009054906101000a900473ffffffffffffffffffffffffffffffffffffffff1681565b600b5481565b60085481565b60008054906101000a900473ffffffffffffffffffffffffffffffffffffffff1681565b600a6020528060005260406000206000915090505481565b336000600a60008373ffffffffffffffffffffffffffffffffffffffff1673ffffffffffffffffffffffffffffffffffffffff16815260200190815260200160002054111561097e576000600c60008373ffffffffffffffffffffffffffffffffffffffff1673ffffffffffffffffffffffffffffffffffffffff16815260200190815260200160002054436108819190610f01565b90506000600b54600a60008573ffffffffffffffffffffffffffffffffffffffff1673ffffffffffffffffffffffffffffffffffffffff16815260200190815260200160002054600854846108d69190610f35565b6108e09190610f35565b6108ea9190610fa6565b9050600960009054906101000a900473ffffffffffffffffffffffffffffffffffffffff1673ffffffffffffffffffffffffffffffffffffffff166394bf804d82856040518363ffffffff1660e01b8152600401610949929190610fd7565b600060405180830381600087803b15801561096357600080fd5b505af1158015610977573d6000803e3d6000fd5b5050505050505b43600c60008373ffffffffffffffffffffffffffffffffffffffff1673ffffffffffffffffffffffffffffffffffffffff168152602001908152602001600020819055506000821015610a06576040517f08c379a00000000000000000000000000000000000000000000000000000000081526004016109fd906111d0565b60405180910390fd5b600960009054906101000a900473ffffffffffffffffffffffffffffffffffffffff1673ffffffffffffffffffffffffffffffffffffffff166323b872dd3330856040518463ffffffff1660e01b8152600401610a65939291906111f0565b600060405180830381600087803b158015610a7f57600080fd5b505af1158015610a93573d6000803e3d6000fd5b5050505081600a60003373ffffffffffffffffffffffffffffffffffffffff1673ffffffffffffffffffffffffffffffffffffffff1681526020019081526020016000206000828254610ae69190611227565b9250508190555081600b6000828254610aff9190611227565b925050819055507f9e71bc8eea02a63969f509818f2dafb9254532904319f9dbda79b67bd34a5f3d3383604051610b3792919061125b565b60405180910390a15050565b600d8181548110610b5357600080fd5b906000526020600020016000915054906101000a900473ffffffffffffffffffffffffffffffffffffffff1681565b60011515610b8e610c24565b151514610bd0576040517f08c379a0000000000000000000000000000000000000000000000000000000008152600401610bc7906112d0565b60405180910390fd5b610bd8610c8a565b8060088190555050565b600c6020528060005260406000206000915090505481565b60068160058110610c0a57600080fd5b60209182820401919006915054906101000a900460ff1681565b600080600090505b6005811015610c81576000151560068260058110610c4d57610c4c6110e9565b5b602091828204019190069054906101000a900460ff16151503610c74576000915050610c87565b8080600101915050610c2c565b50600190505b90565b60005b6005811015610cd857600060068260058110610cac57610cab6110e9565b5b602091828204019190066101000a81548160ff0219169083151502179055508080600101915050610c8d565b50565b600080fd5b6000819050919050565b610cf381610ce0565b8114610cfe57600080fd5b50565b600081359050610d1081610cea565b92915050565b600060208284031215610d2c57610d2b610cdb565b5b6000610d3a84828501610d01565b91505092915050565b600073ffffffffffffffffffffffffffffffffffffffff82169050919050565b6000610d6e82610d43565b9050919050565b610d7e81610d63565b82525050565b6000602082019050610d996000830184610d75565b92915050565b6000819050919050565b6000610dc4610dbf610dba84610d43565b610d9f565b610d43565b9050919050565b6000610dd682610da9565b9050919050565b6000610de882610dcb565b9050919050565b610df881610ddd565b82525050565b6000602082019050610e136000830184610def565b92915050565b610e2281610ce0565b82525050565b6000602082019050610e3d6000830184610e19565b92915050565b610e4c81610d63565b8114610e5757600080fd5b50565b600081359050610e6981610e43565b92915050565b600060208284031215610e8557610e84610cdb565b5b6000610e9384828501610e5a565b91505092915050565b60008115159050919050565b610eb181610e9c565b82525050565b6000602082019050610ecc6000830184610ea8565b92915050565b7f4e487b7100000000000000000000000000000000000000000000000000000000600052601160045260246000fd5b6000610f0c82610ce0565b9150610f1783610ce0565b9250828203905081811115610f2f57610f2e610ed2565b5b92915050565b6000610f4082610ce0565b9150610f4b83610ce0565b9250828202610f5981610ce0565b91508282048414831517610f7057610f6f610ed2565b5b5092915050565b7f4e487b7100000000000000000000000000000000000000000000000000000000600052601260045260246000fd5b6000610fb182610ce0565b9150610fbc83610ce0565b925082610fcc57610fcb610f77565b5b828204905092915050565b6000604082019050610fec6000830185610e19565b610ff96020830184610d75565b9392505050565b600082825260208201905092915050565b7f696e73756666696369656e74207374616b656420746f6b656e00000000000000600082015250565b6000611047601983611000565b915061105282611011565b602082019050919050565b600060208201905081810360008301526110768161103a565b9050919050565b7f63616e6e6f742077697468647261772030000000000000000000000000000000600082015250565b60006110b3601183611000565b91506110be8261107d565b602082019050919050565b600060208201905081810360008301526110e2816110a6565b9050919050565b7f4e487b7100000000000000000000000000000000000000000000000000000000600052603260045260246000fd5b7f596f7520617265206e6f742061206d616e616765720000000000000000000000600082015250565b600061114e601583611000565b915061115982611118565b602082019050919050565b6000602082019050818103600083015261117d81611141565b9050919050565b7f63616e6e6f74207374616b652030000000000000000000000000000000000000600082015250565b60006111ba600e83611000565b91506111c582611184565b602082019050919050565b600060208201905081810360008301526111e9816111ad565b9050919050565b60006060820190506112056000830186610d75565b6112126020830185610d75565b61121f6040830184610e19565b949350505050565b600061123282610ce0565b915061123d83610ce0565b925082820190508082111561125557611254610ed2565b5b92915050565b60006040820190506112706000830185610d75565b61127d6020830184610e19565b9392505050565b7f4e6f7420616c6c20636f6e6669726d6564207965740000000000000000000000600082015250565b60006112ba601583611000565b91506112c582611284565b602082019050919050565b600060208201905081810360008301526112e9816112ad565b905091905056fea2646970667358221220809370f9e4f3cc6d9e159dca8fe5184064d61aa9121772a425c4c5d04945665d64736f6c634300081c0033",
  "linkReferences": {},
  "deployedLinkReferences": {}
}